:020000040800F2
:10500000400800200551000891780008B9600008A8
:1050100001620008F95B0008A98B0008000000008D
:10502000000000000000000000000000BD8100083A
:10503000475D00080000000009800008BD830008EB
:105040001F5100081F5100081F5100081F51000880
:105050001F5100081F510008815D0008B55D000860
:105060001F5100081F5100081F5100081F51000860
:105070001F5100081F5100081F5100081F51000850
:105080001F5100081F5100081F5100081F51000840
:105090001F5100081F5100081F5100081F51000830
:1050A0001F510008158400081F5100081F510008F7
:1050B0001F5100081F5100081F5100081F51000810
:1050C0001F5100081F5100081F5100081F51000800
:1050D0001F510008C18900081F5100081F51000816
:1050E0001F5100081F5100081F510008DFF810D0A1
:1050F00000F038FC0048004731960008AFF300800C
:10510000400800200648804706480047FEE7FEE7C3
:10511000FEE7FEE7FEE7FEE7FEE7FEE7FEE7FEE767
:10512000C1830008ED500008D2B201E000F8012B65
:10513000491EFBD270470022F6E710B513460A4617
:1051400004461946FFF7F0FF204610BD10B50022B7
:1051500000E0521C835C8C5CA34201D1002BF8D18F
:10516000D8B2E1B2401A10BDF0B480EA0102D40F07
:105170004200B2EB410F02D20246084611464A00F5
:1051800042D0C30DDDB2C1F3C752AD1A202D35DABE
:10519000C1F3160141F4000204B15242C5F12006E8
:1051A00002FA06F12A411044B3EBD05F23D0C4B118
:1051B000012DA0EBC35009DCF0BC4FF0004202EA25
:1051C000C352DBB200F5000000F029BB400000F143
:1051D000807000EBC350A0F1807040EAD1704900AC
:1051E00009E0490841EAC071A0EBC35000F5000096
:1051F000400800EBC350F0BC00F008BB6142012244
:1052000002EB4101001BF6E7F0BC704781F0004162
:10521000AAE780F00040A7E780EA010210B502F09B
:105220000043400022D04A001FD0010E01EB126162
:10523000C0F35600C2F3560240F4000042F40002EC
:10524000A0FB022000047F39140400D0401C50EA67
:10525000124001D44000491EC2B20C0604EBD0102B
:10526000401C4008802A02D003E0002010BD20F03E
:105270000100002900DA0020184310BD30B480EA94
:10528000010202F0004530F0004221F0004013D04E
:1052900090B1C30DD40DC2F31601C0F31600E41A89
:1052A00041F4000140F400027D34914201D3641CBA
:1052B00000E04900002C02DA30BC002070474FF4B7
:1052C00000000023914201D3891A034340084FEAAA
:1052D0004101F7D151B1914202D14FF0004105E0B7
:1052E00002D24FF0010101E06FF0010103EBC45065
:1052F000284430BC00F08ABA420005D0C0F3C7523F
:105300005242914201DC0020704700EBC1507047CF
:105310002DE9FE4F804681EA0300C00F0C46009045
:1053200021F0004123F00045B8EB0200A94105D26D
:105330004046214690461C460B46024623F000405C
:10534000104347D0270DC7F30A00C3F30A51029058
:10535000401A019040286BDAC3F3130040F4801B1D
:105360000098924620B10023D2EB030A63EB0B0BAB
:1053700001985946C0F14002504600F016FA064620
:105380000D4650465946019A00F02EFA10EB0800DF
:105390006141002487EA115284EAE7731A4340D03E
:1053A000009A62B3019A012A4FEA075215DC001BEA
:1053B00061EB02014FF0004202EA0752CDE90042E0
:1053C000001C41F5801132462B4600F065FA03B00F
:1053D000BDE8F08F40462146F9E7001B61EB020172
:1053E000001C41F5801300185B412018A2F500173E
:1053F00047EB030140EAD570B6196D4111E06D0825
:105400004FEA360645EAC0754FEA0752001B61EBCA
:105410000201001C41F5801149084FEA30000019D3
:10542000514132462B4603B0BDE8F04F00F025BA9B
:105430000098012240000023D0EB020263EBE073EE
:10544000009821464FEAE074B8EB000061EB0401DC
:10545000E9E783F000435BE781F0004158E72DE97D
:10546000FE4F81EA030404F0004421F0004100945F
:105470004FF0000B23F0004350EA01045ED052EAE3
:1054800003045BD0C3F30A54C1F30A552C44A4F2BD
:10549000F3340194A0FB0254C1F3130141F48011D1
:1054A000C3F3130343F4801301FB024400FB034ED8
:1054B000840A970A44EA815447EA8357A4FB0768A1
:1054C00002958D0A05FB07854FEA932C04FB0C54CB
:1054D0002705029D4FEA065847EA1637B5EB08053F
:1054E0006EEB070C870E920E47EA811742EA831291
:1054F000A7FB0201B6EB0B0164EB00042B0D43EAA2
:105500000C335E1844EB1C50DA465146E7FB0201AF
:10551000C5F313044FEA0B3343EA14534FEA043242
:10552000019C43EA0603A4F10C040294009CCDE91B
:1055300000B400F0B1F903B0BDE8F08F00200146DF
:10554000F9E72DE9F04D81EA030404F0004B21F066
:10555000004514464FF0000A23F0004150EA0502CE
:1055600020D054EA01021DD0C5F30A570246C5F304
:105570001303C1F31300C1F30A5640F4801543F43A
:105580008013A7EB0608101BD64608F2FD3873EB14
:10559000050002D308F1010801E092185B41B8F15F
:1055A000000F03DA00200146BDE8F08D00204FF423
:1055B0008011064684460EE0171B73EB050705D3E2
:1055C000121B63EB050306434CEA010C49084FEA42
:1055D000300092185B4150EA0107EDD152EA030016
:1055E00012D082EA040083EA0501084305D0101BAB
:1055F000AB4106D20122002306E000224FF0004317
:1056000002E06FF0010253101AEB06004CEB085158
:1056100010EB0A0041EB0B01BDE8F04D00F02DB995
:10562000C10F80EAE0700844CA079623002100F009
:10563000F6B896230022114600F0F1B80EB540F2FC
:10564000334102910021CDE900110A460B4600F0DA
:1056500023F903B000BD20F00040C10DC0F31600D7
:1056600040F400007F2901DA00207047962903DC0E
:10567000C1F19601C8407047963988407047C1F320
:105680000A5210B5C1F3130140F2FF3341F4801107
:105690009A4201DA002010BD40F233439A42A2F24E
:1056A000334203DC524200F08FF810BD904010BD31
:1056B00000F0004230F000400AD0C10D01F56071E9
:1056C000C0F3160042EA0151C20840071143704777
:1056D000002001467047000030B5041E71F100043F
:1056E00004DB4FF00044404264EB0101141E73F1EF
:1056F000000405DB1C464FF00043524263EB0403F9
:10570000994208BF904230BD002801DBC0F1004043
:10571000002901DBC1F100418142704730B50B46E1
:10572000014600202022012409E021FA02F59D42D1
:1057300005D303FA02F5491B04FA02F52844151EA5
:10574000A2F10102F1DC30BD2DE9F05F0546002039
:1057500092469B4688460646814640241BE02846E2
:1057600041464746224600F02FF853465A46C01A93
:10577000914110D311461846224600F016F82D1A12
:1057800067EB01084F4622460120002100F00DF88A
:1057900017EB00094E41201EA4F10104DFDC48464E
:1057A00031462A464346BDE8F09F202A04DB203AD2
:1057B00000FA02F1002070479140C2F1200320FA64
:1057C00003F3194390407047202A04DB203A21FA62
:1057D00002F00021704721FA02F3D040C2F120020A
:1057E0009140084319467047202A06DBCB17203A20
:1057F00041FA02F043EAE07306E041FA02F3D040D6
:10580000C2F1200291400843194670470029A8BF01
:105810007047401C490008BF20F00100704710B4D9
:10582000B0FA80FC00FA0CF050EA010404BF10BC8E
:10583000704749B1CCF1200421FA04F411FA0CF1BB
:1058400018BF012121430843A3EB0C01CB1D4FEAF4
:1058500000614FEA102042BF002010BC704700EBEF
:10586000C35010440029A4BF10BC7047401C49001D
:1058700008BF20F0010010BC704710B5141E73F172
:10588000000408DA401C41F1000192185B411A4300
:1058900001D120F0010010BD2DE9F04D92469B464C
:1058A00011B1B1FA81F202E0B0FA80F220329046F2
:1058B000FFF77BFF04460F4640EA0A0041EA0B016E
:1058C00053465A46084313D0114653EA010019D0F3
:1058D000C8F140025046FFF777FF05460E46504696
:1058E00059464246FFF761FF084305D0012004E016
:1058F00020463946BDE8F08D0020054346EAE076B3
:105900002C4337430A986305E40AA0EB0800002201
:10591000FD0A44EA47540A3002D500200146E9E76F
:10592000010510196941DDE9084500196941BDE823
:10593000F04DA2E7C1F30A52C1F3130140F2FF3365
:1059400041F480119A4202DA00200146704740F289
:1059500033439A42A2F2334202DC5242FFF734BF91
:10596000FFF723BF064C074D06E0E06840F0010357
:1059700094E8070098471034AC42F6D3FFF7BAFB1F
:1059800020A9000840A90008002904D0816841F03E
:10599000010181607047816821F0010181607047D9
:1059A000014600208968490700D501207047C06C76
:1059B00080B270470246002012680A4200D00120DF
:1059C0007047014600208968090700D5012070470B
:1059D00010B542680E4B1A400C790B6842EA04225B
:1059E0001343436082680B4B1A40D1E902432343BF
:1059F0004C7942EA440213438360C26A22F4700283
:105A0000097C491EC9B242EA0151C16210BD0000C1
:105A1000FFFEF0FFFDF7F1FF70B5072609290AD94F
:105A2000C568A1F10A0404EB4404A640B543A340B1
:105A30001D43C56007E0056901EB4104A640B5437D
:105A4000A3401D4305611F23072A09D2446B521E40
:105A500002EB820293409C4391400C43446370BD2F
:105A60000D2A09D2046BD21F02EB820293409C43A1
:105A700091400C43046370BDC46A0D3A02EB82028C
:105A800093409C4391400C43C46270BD816841F0D7
:105A9000080181607047002904D0816841F4A001A9
:105AA00081607047816821F4A0018160704781683E
:105AB00041F004018160704710B50B4C014605238D
:105AC00001222046FFF7A8FF01212046FFF7E3FF50
:105AD00002212046FFF76EFF0028F9D02046BDE8DE
:105AE0001040FFF764BF00000024014010B586B0ED
:105AF0000121480202F0B0FA0121042002F0ACFAC0
:105B00004FF4004002F082FA002405948DF817400B
:105B10000320ADF814008DF8160005A9164800F012
:105B20001BFA14216846FFF706FB009403944FF418
:105B3000602002908DF805408DF8044001208DF81A
:105B400010000E4C69462046FFF742FF0121204617
:105B5000FFF71AFF2046FFF799FF2046FFF731FFB6
:105B60000128FAD02046FFF7A2FF2046FFF718FFD2
:105B70000128FAD006B010BD000801400024014001
:105B800030B5039D0478002906DD6119994201D3DF
:105B9000037030BD017030BD51198C4201D80270C4
:105BA00030BD611B017030BD08B50121082002F035
:105BB00053FA0020009010208DF803000002ADF889
:105BC000000003208DF802006946024800F0C4F985
:105BD00008BD0000000C01404FF48051014800F066
:105BE00015BA0000000C01404FF48051014800F04C
:105BF0000FBA0000000C0140FEE7000070B5002461
:105C000000F044F8124D04E0641CE4B2012000F0FE
:105C1000A7F82021284600F0F2F908B1642CF3D34C
:105C2000642C01D3012070BD002404E0641CE4B2A4
:105C3000012000F095F82021284600F0E0F908B98D
:105C4000642CF3D3642C01D3012070BD002070BDFF
:105C5000000C014038B5002000900121082002F01E
:105C6000FBF92020ADF8000010208DF80300032080
:105C70008DF80200044C6946204600F06DF92021A1
:105C8000204600F0C5F938BD000C014008B50020E1
:105C900000902020ADF8000048208DF803006946F0
:105CA000014800F059F908BD000C014008B500207A
:105CB00000902020ADF8000010208DF80300032094
:105CC0008DF802006946024800F046F908BD000060
:105CD000000C014070B50024134D04E0641CE4B2D4
:105CE000012000F03DF82021284600F088F908B195
:105CF000642CF3D3002404E0641CE4B2012000F01F
:105D00002FF82021284600F07AF908B9642CF3D343
:105D1000282000F025F82021284600F070F908B16D
:105D2000012070BD002070BD000C014070B5002046
:105D300000244006050EFFF7CDFF2843641CE4B2A3
:105D4000082CF6D370BD704700B502464FF47A7345
:105D500002E0184600F004F8521E501CF9D100BDB4
:105D600000EBC000C1004FF0E020416100218161E3
:105D7000052101610169C903FCD504210161704756
:105D800010B5012000F036F801280DD10221074896
:105D900000F035F918B906480178491C0170BDE8D2
:105DA0001040012000F020B810BD0000000C0140A0
:105DB0002B00002010B5022000F01CF801280DD1A6
:105DC0000121074800F01BF918B906480178491E5F
:105DD0000170BDE81040022000F006B810BD0000C0
:105DE000000C01402B0000200149086070470000B2
:105DF0001404014001460020054A12680A40044B81
:105E000014331B680B4202D0002A00D001207047D7
:105E10000004014030B51B4A83790168002B2AD069
:105E200013688B431360111D0B680468A3430B6058
:105E3000017911440B68046823430B60114C08344A
:105E40002168036899432160231D19680568A943E7
:105E500019604179102905D011440A68006802438D
:105E60000A6030BD2168026811432160196800682A
:105E70000143196030BD0079104402688A43026012
:105E800030BD000000040140024991F900000022E9
:105E90000A7070472B0000207FB50121082002F016
:105EA000DBF80121084602F0D7F8002503954820C9
:105EB0008DF80F000324ADF80C408DF80E4003A9B7
:105EC0001A4800F049F80021012000F031F80121C2
:105ED000084600F02DF80295019401248DF80A403F
:105EE0008DF8085008208DF8090001A8FFF792FFEF
:105EF0004FF4A06001F000FD009506208DF8000031
:105F00008DF803408DF801408DF80240684601F09D
:105F1000C1FC07208DF800008DF803408DF801408A
:105F20008DF80240684601F0B5FC7FBD000C0140D1
:105F300010B58A07120F0F23934021F0030405497F
:105F400021448C689C438C608B68904003438B6039
:105F500010BD0000000001402DE9F0410022CC7886
:105F600004F00F03E40601D58C7823430C784FF03E
:105F70000F0714F0FF0F4FF0010C1CD005680CFA4E
:105F800002F40E882640A64211D1960007FA06F8C0
:105F900025EA080503FA06F848EA0505CE78282E12
:105FA00002D0482E02D002E0446100E00461521C9D
:105FB000082AE4D305600A88FF2A1ED94568002212
:105FC00002F108060CFA06F40E882640A64210D10B
:105FD000960007FA06F825EA080503FA06F848EAE3
:105FE0000505CE78282E00D14461CE78482E00D108
:105FF0000461521C082AE3D34560BDE8F0810246E3
:10600000002092680A4200D0012070474161704729
:1060100001617047002A01D00161704741617047FA
:106020002DE9F0470646002400250027DFF82880E8
:1060300042F210790BE002F0BFFD012806D102F018
:10604000B5FD70556D1C002488F80070641C4C452B
:10605000F1D3BDE8F08700003700002002F0B8BDA2
:1060600010B5FFF711FF04461148FFF7D9FF11499A
:106070004FF0FF300A784AB901220A700C490978BA
:1060800055290DD044290AD059290BD0012C0BD009
:10609000641C04D000F012F8012807D0002010BDC5
:1060A000012010BD022010BD012010BD022010BD36
:1060B0003800002037000020FEE7000070B5002403
:1060C0000B4D4FF4807631462846FFF798FF60B9B4
:1060D0001420FFF739FE31462846FFF790FF0028CD
:1060E000F9D01420FFF730FE0124204670BD0000D7
:1060F0000008014008B50121042001F0ADFF002097
:10610000009048208DF803004FF48070ADF8000037
:1061100003208DF8020069460148FFF71DFF08BD06
:10612000000801404FF400510148FFF771BF000023
:10613000001001404FF400510148FFF767BF000015
:106140000010014038B50121102001F085FF00202A
:10615000009010208DF803004402ADF800400320A9
:106160008DF80200044D69462846FFF7F5FE2146EA
:106170002846FFF74DFF38BD0010014070B50025DF
:1061800000240120FFF798FCFFF753FA2946FEF799
:10619000EBFF0546641CE4B20A2CF2D313492846EF
:1061A000FFF76CF8124D2946FFF736F86FF00B0138
:1061B000FFF7A2F804460F48844200DA04464FF085
:1061C000FF312046FFF798F8064621462846FFF79C
:1061D0001DF83146FFF752F801460748FFF74EF821
:1061E000BDE87040054903F013BA000000002041EB
:1061F0000000A0400AD7233CD349994287A7273FF4
:10620000FEE700002DE9FF5F002401270397DFF878
:106210000883DFF800A300266FF0F90B08F10609E8
:10622000FFF732FE0546BD48FFF7FAFE9AF8000078
:10623000F8B98AF80070B9480078442814D04D287D
:1062400004D055280AD059281AD113E001F06CFB6C
:1062500001F020FE032004B0BDE8F09F04220121DC
:1062600003A801F053FB0BE00422511F03A801F027
:106270004DFB05E001F058FB01F00CFE9DF80C40D1
:10628000012D04D10422012103A801F03FFB6D1C64
:1062900004D10422511F03A801F038FB9E48801D41
:1062A00001F04CFF01281DD19DF80C00032819D8DE
:1062B00099F8020000909AA308221021002001F012
:1062C00033FC99F8000000909EA308221021402082
:1062D00001F02AFC0823A4A21021782001F016FD69
:1062E00001F0D8FDFFF74AFF02908B4D0B35E8799E
:1062F000FFF79FF90299FFF707FA1ED86FF04A00DF
:1063000001F0A4FA98F8020070B1B8F80400401C3B
:1063100080B2A8F80400282846D3FFF765FCFFF7F1
:1063200001FF88F802603FE0FFF756FCFFF702FF2D
:1063300088F80270A8F8046036E098F8020028B1E6
:10634000FFF752FCFFF7EEFE88F8026099F80200B2
:106350006979884204D299F80020AB799A4220D317
:10636000421A99F80010AB79CB1A9A420CDB00EB79
:1063700080000BEB4000142803DA142001F066FAC9
:1063800012E001F063FA0FE06FF0630000EB4100F0
:10639000142803DA142001F059FA05E001F056FA46
:1063A00002E0002001F052FA9DF80C0004280CD104
:1063B0000298FFF77DF9CDE90001002174A30822BE
:1063C000084601F0B1FB01F065FDFFF777FE0128FB
:1063D00005D101F0A9FA01F05DFD9DF80C40012CFA
:1063E00006D0022C06D0032C08D0042C0DD109E0D5
:1063F000002030E700F0C0FAC4B206E000F0DEF999
:10640000C4B202E000F042F9C4B29DF80C000128C9
:1064100023D0022840D003285DD004287FF400AFA9
:10642000E879009066A308221021002001F07CFB8F
:1064300008236DA22021002001F068FC08236AA235
:106440003021002001F062FC102380221946002038
:1064500001F080FB01F01EFDE2E6002108236DA2A1
:10646000084601F053FC6879009074A308222021AB
:10647000002001F059FBA87900907AA3082230216E
:10648000002001F051FB002110238022084601F07A
:1064900061FB01F0FFFCC3E6002108235DA2084672
:1064A00001F034FC6879009064A3082220210020C8
:1064B00001F03AFBA87900906AA30822302100205D
:1064C00001F032FB102380222021002001F042FB4A
:1064D00001F0E0FCA4E6002108234EA2084601F0EA
:1064E00015FC6879009055A308222021002001F0B6
:1064F0001BFBA87900905BA308223021002001F04B
:1065000013FB102380223021002001F023FB01F037
:10651000C1FC85E63700002018000020380000206C
:10652000E6B8A9E5BAA63A2564C2B020202020200A
:10653000202020202020202020202020202020205B
:1065400020202000E6B9BFE5BAA63A256420202025
:10655000202020202020202020202020202020203B
:106560002020202020000000252020202020202086
:10657000202020202020202020202020202020201B
:10658000202020202020202020202020200000006B
:10659000E6A380E6B58BE6B593E5BAA63A252E319B
:1065A0006670706D202020202020202020202020B8
:1065B000202020202020202020202020000000005B
:1065C000E6B593E5BAA6E99888E580BC3A2564204B
:1065D00020202020202020202020202020202020BB
:1065E00020202020202020002020202020202020CB
:1065F000202020202020202020202020202020209B
:10660000202020202020202020202020202020208A
:1066100020200000E8BF94E59B9E20202020202021
:10662000202020202020202020202020202020206A
:10663000202020202020202020200000E6B8A9E5EE
:10664000BAA6E99888E580BC3A256420202020205D
:10665000202020202020202020202020202020203A
:1066600020202000E6B9BFE5BAA6E99888E580BCFD
:106670003A256420202020202020202020202020B7
:106680002020202020202020202020007CB5012553
:10669000284CAE1E3AE0012802D002280ED12BE091
:1066A00001221E231146E01D0095FFF769FA05E05F
:1066B0001E230122E01D0095FFF762FAE0790090A9
:1066C0001DA308221021002001F02EFA082324A285
:1066D0002021002001F01AFB082321A230210020F4
:1066E00001F014FBE0790A2808D210230822194689
:1066F000482001F02FFA07E000207CBD10231A4645
:106700001946482001F026FA01F0C4FBFFF736FDD8
:10671000FEF7CEFFCDE9000100211CA308220846A8
:1067200001F002FA01F0B6FBFFF79AFC314688420D
:10673000BED0B0E723000020E6B593E5BAA6E998FD
:1067400088E580BC3A2564202020202020202020BD
:106750002020202020202020202020202020200059
:106760002020202020202020202020202020202029
:106770002020202020202020202020202020202019
:10678000202020202020202020200000E6A380E6DA
:10679000B58BE6B593E5BAA63A252E316670706DD5
:1067A00020202020202020202020202020202020E9
:1067B000202020202020202000000000F8B5334DAC
:1067C00001264FF0FF376C1D59E0A878009030A3E8
:1067D00008221021002001F0A7F92878009035A3A5
:1067E00008221021402001F09FF908233AA210212D
:1067F000782001F08BFA01F04DFBFFF731FC3946B0
:1068000088420CD0012802D002280ED12DE05A2354
:1068100014220121A01D0096FFF7B2F905E05A23CA
:106820001422A01D0096FFF7ABF90021082334A223
:10683000084601F06BFA607900903BA30822202102
:10684000002001F071F9A079009041A308223021C5
:10685000002001F069F928780A2808D210230822BC
:106860003021482001F076F907E00020F8BD102320
:106870001A463021482001F06DF901F00BFB034866
:1068800001F05CFC0128B8D19FE700001E00002049
:10689000E6B8A9E5BAA63A2564C2B0202020202097
:1068A00020202020202020202020202020202020E8
:1068B00020202000E6B9BFE5BAA63A2564202020B2
:1068C00020202020202020202020202020202020C8
:1068D0002020202020000000252020202020202013
:1068E00020202020202020202020202020202020A8
:1068F00020202020202020202020202020000000F8
:10690000E8BF94E59B9E20202020202020202020EE
:106910002020202020202020202020202020202077
:106920002020202020200000E6B8A9E5BAA6E9989A
:1069300088E580BC3A2564202020202020202020CB
:106940002020202020202020202020202020200067
:10695000E6B9BFE5BAA6E99888E580BC3A25642087
:106960002020202020202020202020202020202027
:106970002020202020202000F8B5334D01264FF0A4
:10698000FF376C1D59E0A878009030A30822102131
:10699000002001F0C9F82878009035A308221021C2
:1069A000402001F0C1F808233AA21021782001F01C
:1069B000ADF901F06FFAFFF753FB394688420CD06E
:1069C000012802D002280ED12DE032230F2201210E
:1069D000601D0096FFF7D4F805E032230F22601DFA
:1069E0000096FFF7CDF80021082334A2084601F0F5
:1069F0008DF9607900903BA308222021002001F04E
:106A000093F8A079009041A308223021002001F0E2
:106A10008BF8A8780A2808D21023082220214820C1
:106A200001F098F807E00020F8BD10231A46202155
:106A3000482001F08FF801F02DFA034801F07EFBA9
:106A40000128B8D19FE700001E000020E6B8A9E5A4
:106A5000BAA63A2564C2B020202020202020202081
:106A60002020202020202020202020202020200046
:106A7000E6B9BFE5BAA63A256420202020202020D0
:106A80002020202020202020202020202020202006
:106A90002000000025202020202020202020202051
:106AA00020202020202020202020202020202020E6
:106AB000202020202020202020000000E8BF94E596
:106AC0009B9E2020202020202020202020202020CD
:106AD00020202020202020202020202020202020B6
:106AE00020200000E6B8A9E5BAA6E99888E580BCB0
:106AF0003A25642020202020202020202020202033
:106B0000202020202020202020202000E6B9BFE5E2
:106B1000BAA6E99888E580BC3A2564202020202088
:106B20002020202020202020202020202020202065
:106B30002020200070B5FFF74FF8FFF7FBFA4FF465
:106B4000C870FFF701F9FFF74FF8FFF7EBFA00F015
:106B5000EBFE08230FA21021312001F0D7F8082303
:106B600019A22021212001F0D1F801F093F9244E3F
:106B7000244C01252248FFF753FA20780028F9D148
:106B8000257030784D28F5D100F0CEFE01F082F965
:106B9000012070BDE782B9E587BB2020202020209E
:106BA00020202020202020202020202020202020E5
:106BB00020202020202020202020202020202020D5
:106BC0002020202000000000E6A8A1E5BC8FE58879
:106BD00087E68DA220202020202020202020202099
:106BE00020202020202020202020202020202020A5
:106BF00020202020202020202020202020200000D5
:106C000038000020370000202DE9F0418AB0054609
:106C10000E461746984600243057009055F8243009
:106C20000FA2202102A802F043F82101082302AAA2
:106C3000002001F06BF8641CE4B2042CECD3B8F132
:106C40000A0F01D2082200E0102239011023482047
:106C500000F080FF01F01EF90AB0BDE8F0810000ED
:106C60002573256420202020202020202020202083
:106C70002020202020202020202020200000000094
:106C80002DE9F04105460E460D4F7878864214D026
:106C90000024210155F824200823002001F036F8B3
:106CA000641CE4B2042CF4D33101102380220020B0
:106CB00000F050FF01F0EEF87E70BDE8F0810000BA
:106CC000180000202DE9FF41284DFF20687028782A
:106CD0000126032800D92E70254FDFF898802AE07E
:106CE0003E7025480078412804D10420287004B063
:106CF000BDE8F081012C04D1032201211B4800F0E2
:106D000005FE641C04D10322111F184800F0FEFD8B
:106D1000FFF7D4F9012822D02978491E02290AD880
:106D2000164890E81C00C0688DE81C000390C9B2AA
:106D30006846FFF7A5FF404601F096FA002000F0F4
:106D400085FDFEF751FFFFF7EDF9FFF79DF80446CB
:106D50000948FFF765F938780028CBD1C0E700F083
:106D6000E3FD01F097F82878C1E700001800002043
:106D7000370000200000B44238000020B896000818
:106D80002DE9F047A6B00024012725974B4EFF259B
:106D90007570DFF82C814FF0FF39FFF775F88246E8
:106DA0004848FFF73DF998F80000F8B988F80070F6
:106DB00044480278442A14D04D2A04D0552A0AD0D7
:106DC000592A1AD113E000F0AFFD01F063F8022058
:106DD00026B0BDE8F0870422012125A800F096FD29
:106DE0000BE00422494625A800F090FD05E000F0E4
:106DF0009BFD01F04FF89DF89440BAF1010F04D1CA
:106E00000422012125A800F081FDBAF1FF3F04D141
:106E10000422494625A800F079FDFFF74FF9012823
:106E200005D100F081FD01F035F89DF89440012C6A
:106E300006D0022C06D0032C09D0042C10D10BE074
:106E40000020C5E700F090F8C4B2757008E000F0CB
:106E500003F9C4B2757003E000F0C0F8C4B27570F5
:106E600019A220211DA801F023FFDFF850A020A2C5
:106E70000AF10B0A20219AF9013015A801F018FF38
:106E80009AF8003024A220210DA801F011FF9AF8F1
:106E900002302BA2202105A801F00AFF1DA80190B5
:106EA00015A802900DA8039005A804909DF89400E1
:106EB000401EC1B201A8FFF7E3FE6EE718000020F4
:106EC0003700002038000020E8BF94E59B9E20207A
:106ED00020202020202020202020202020202020B2
:106EE00020202020202020202020202020200000E2
:106EF000E6978BE8BDACE696B9E590913A2564201B
:106F00002020202020202020202020202020202081
:106F10002020202020202000E9809FE5BAA6E8B0AC
:106F200083E88A823A256420202020202020202007
:106F30002020202020202020202020202020200071
:106F4000E69187E5A4B4E6A8A1E5BC8F3A256420C4
:106F50002020202020202020202020202020202031
:106F6000202020202020200030B585B0194C4FF083
:106F7000FF3527E0012802D0022804D127E00120B4
:106F8000607000E065701448D0E905230169C069AC
:106F9000CDE90223019104900020009063788DF8E0
:106FA000013020788DF80200A0788DF803000122CE
:106FB000694601A8FFF728FE207894F9011048439C
:106FC00000F044FCFFF74CF8A842DBD0D2E705B054
:106FD000002030BD23000020B896000870B586B0B0
:106FE00000251A4C6E1E26E0012802D0022804D18A
:106FF00026E00120A07000E0A5701548D0E90D231F
:10700000016BC06BCDE90323029105900195607877
:107010008DF8050020788DF80600A3788DF80730EC
:10702000032201A902A8FFF7EFFDA07801280AD0EA
:10703000084801F019F9FFF713F8B042DCD0D3E7A4
:1070400006B0002070BD01F027F9F4E7230000200E
:10705000B89600080000B44270B586B00525AE1F92
:1070600031E0012802D002280ED132E06323002251
:10707000012119480095FEF783FD05E063230022F6
:1070800015480095FEF77CFD144802ACD0E90923B1
:10709000016AC06A0EC40590002001900E4C607811
:1070A0008DF8050023788DF80630A0788DF807005C
:1070B000022201A902A8FFF7A7FD207894F9011088
:1070C000484300F0C3FBFEF7CBFF31468842D5D0E2
:1070D000C7E706B0002070BD23000020B896000866
:1070E00038B501212B4801F0D5F9FEF7B9FF08B1F9
:1070F000002038BD284C002128A394F901000090FD
:107100000822084600F010FDE078009029A308222C
:107110001021002000F008FD207900902BA3082208
:107120002021002000F000FD08232EA230210020A5
:1071300000F0ECFD3148082500950278022330214B
:10714000382000F0BFFD2E48009502230278302140
:10715000502000F0B7FD01F0E3FB0246022330218E
:107160006820009500F0AEFD00F094FEE07894F900
:107170000110484300F06AFB2079012803D0214820
:1071800001F072F8B1E701F087F81920FEF7DCFD95
:10719000ABE70000002C014023000020E6978BE8BD
:1071A000BDACE696B9E590913A25642020202020D8
:1071B00020000000E6978BE8BDACE9809FE5BAA609
:1071C0003A2564202020202020000000E69187E559
:1071D000A4B4E6A8A1E5BC8F3A2564202020202095
:1071E00020000000E58092E8AEA1E697B63A2020A4
:1071F0003A20203A20202020200000001400002007
:10720000150000200000B4422DE9F04FA5B0002485
:10721000012724976C4EFF257570DFF8B091DFF8D9
:10722000B081484601F020F8002000F00FFBFEF787
:107230002BFE82466748FEF7F3FE98F8000000BB7D
:1072400088F8007063480178442914D04D2904D08F
:1072500055290AD059291BD114E000F065FB00F034
:1072600019FE012025B0BDE8F08F0822012124A8D5
:1072700000F04CFB0CE008224FF0FF3124A800F096
:1072800045FB05E000F050FB00F004FE9DF8904047
:10729000BAF1010F04D10822012124A800F036FB25
:1072A000BAF1FF3F05D108224FF0FF3124A800F0CA
:1072B0002DFBFEF703FF012805D100F035FB00F0A0
:1072C000E9FD9DF89040092C2AD2DFE804F0290559
:1072D000070C11161B2025000020C3E700F058F909
:1072E000C4B275701CE000F099F9C4B2757017E073
:1072F00000F0DAF9C4B2757012E000F015F9C4B20A
:1073000075700DE000F04AFAC4B2757008E000F044
:1073100011FAC4B2757003E0FFF7E2FEC4B27570F3
:107320001CA8009014A801900CA8029004A8039037
:107330009DF890201046521ED11702EB917121F05A
:107340000301511A01F0FF0A04281AD822A22021B1
:107350001CA801F0ADFC2A482AA22021037814A819
:1073600001F0A6FC314832A2202103780CA801F0DC
:107370009FFC394839A22021037804A801F098FC29
:107380001DE0DFF844B03FA20BF10B0B20219BF96D
:1073900001301CA801F08CFC9BF8033043A2202193
:1073A00014A801F085FC9BF804304AA220210CA807
:1073B00001F07EFC51A2202104A801F079FC514685
:1073C0006846FFF75DFC2CE7180000200000B4427F
:1073D0003700002038000020E8BF94E59B9E202065
:1073E000202020202020202020202020202020209D
:1073F00020202020202020202020202020200000CD
:1074000014000020E8AEBEE7BDAEE5B08FE697B64B
:107410003A25642020202020202020202020202009
:1074200020202020202020202020200015000020C7
:10743000E8AEBEE7BDAEE58886E9929F3A256420B6
:10744000202020202020202020202020202020203C
:10745000202020202020200016000020E8AEBEE7DB
:10746000BDAEE7A792E695B03A2564202020202003
:10747000202020202020202020202020202020200C
:1074800020202000E8AEBEE7BDAEE696B9E59091BB
:107490003A25642020202020202020202020202089
:1074A000202020202020202020202000E8AEBEE741
:1074B000BDAEE9809FE5BAA63A25642020202020B1
:1074C00020202020202020202020202020202020BC
:1074D00020202000E8AEBEE7BDAEE69187E5A4B46B
:1074E0003A25642020202020202020202020202039
:1074F000202020202020202020202000E7A1AEE511
:10750000AE9A202020202020202020202020202073
:10751000202020202020202020202020202020206B
:10752000202020202020000030B585B0164C4FF0E0
:10753000FF3521E0012802D0022804D121E00120FA
:10754000607000E065701148D0E91D23016FC06FC5
:10755000CDE90223019104900020009063788DF81A
:107560000030E0788DF8010020798DF802000022CB
:10757000694601A8FFF748FBFEF772FDA842E1D07B
:10758000D8E705B0002030BD23000020B8960008E1
:1075900030B585B00124A51E2EE0012802D00228B6
:1075A0000ED12FE018230022012118480094FEF785
:1075B000E7FA05E01823002214480094FEF7E0FAE9
:1075C0001348D0E91123016CC06CCDE9022301916D
:1075D0000490002000900D4803788DF801300D488C
:1075E00000788DF802000C4800788DF80300012225
:1075F000694601A8FFF708FBFEF732FD29468842DD
:10760000D8D0CAE705B0002030BD0000140000202B
:10761000B8960008150000201600002030B585B08F
:107620000124A51E2EE0012802D002280ED12FE051
:107630003C230022012118480094FEF7A1FA05E03E
:107640003C23002214480094FEF79AFA1348D0E92C
:107650001523016DC06DCDE9022301910490002036
:1076600000900F4800788DF801000B4803788DF8E2
:1076700002300C4800788DF803000222694601A808
:10768000FFF7C2FAFEF7ECFC29468842D8D0CAE7D9
:1076900005B0002030BD000015000020B89600089D
:1076A000140000201600002030B585B00124A51E6E
:1076B0002EE0012802D002280ED12FE03C23002228
:1076C000012118480094FEF75BFA05E03C230022F4
:1076D00014480094FEF754FA1348D0E91923016EB8
:1076E000C06ECDE9022301910490002000900F4864
:1076F00000788DF801000E4800788DF802000948E6
:1077000003788DF803300322694601A8FFF77CFA5D
:10771000FEF7A6FC29468842D8D0CAE705B000206B
:1077200030BD000016000020B896000814000020AC
:107730001500002070B586B00025164C6E1E20E0A6
:10774000012802D0022804D120E00120207100E0AD
:1077500025711148D0E905230169C069CDE90323EA
:1077600002910590019560788DF80400E0788DF81D
:10777000050023798DF80630022201A902A8FFF73F
:1077800043FAFEF76DFCB042E2D0D9E706B0002024
:1077900070BD0000230000203897000870B586B047
:1077A00005251B4CAE1F2AE0012802D002280ED16D
:1077B0002BE0632300220121E01C0095FEF7E0F995
:1077C00005E063230022E01C0095FEF7D9F911487B
:1077D00090E80E00C068CDE90323029105900020D7
:1077E000019060788DF80400E3788DF805302079F9
:1077F0008DF80600012201A902A8FFF705FAFEF79D
:107800002FFC31468842DCD0CEE706B0002070BDA8
:10781000230000203897000808B500F089FB0121FB
:10782000042000F019FC0020009010208DF80300C7
:107830003020ADF8000003208DF8020069460248B0
:10784000FEF78AFB08BD00000008014070B5044641
:107850000E4D002C0CDB10212846FEF7D9FB202111
:107860002846FEF7D3FBA0B2BDE8704000F0B8BBDD
:1078700020212846FEF7CCFB10212846FEF7C6FB48
:107880006042BDE8704080B200F0AABB0008014031
:107890007047000070B50F23C27801260178002AD6
:1078A0001ED0144A126802F4E062C2F5E062120AC5
:1078B000C2F10404D3404578A54082781A402A4397
:1078C000120101F1E02181F80024007800F01F018D
:1078D0008E404009800000F1E020C0F8006170BDDA
:1078E00001F01F0086404809800000F1E020C0F848
:1078F000806170BD0CED00E0024908430249086058
:10790000704700000000FA050CED00E00378194410
:10791000C9B20170914201D9012101700178002999
:1079200000D102707047000010B50021074C002202
:10793000002004EBC1131A54401CC0B28028FAD3B3
:10794000491CC9B20829F3D310BD00004000002033
:107950002DE9F041CF1823E0044686181CE07F2C67
:1079600018D8002916DB3F2914DCCB1701EB537321
:10797000DD104FEAC51C0C4D23F007036544A1EB55
:10798000030815F804C0012303FA08F32CEA030CDA
:1079900005F804C0641C24B2A642E0DC491C09B20C
:1079A0008F42D9DCBDE8F0814000002038B50021CD
:1079B0004FF47A720020401C9042FCD3491C914243
:1079C000F8D30121082000F047FB0020009014208C
:1079D0008DF8030003208DF802004FF48070ADF89D
:1079E0000000094C69462046FEF7B6FA6115ADF86D
:1079F000001069462046FEF7AFFA012000F05EFA5B
:107A0000012000F063FA38BD000C014070B5054656
:107A10000024802626FA04F0284000D0012000F03F
:107A200055FA012000F04AFA002000F047FA641CE1
:107A3000E4B2082CEED3012000F040FABDE870401B
:107A4000002000F03BBA10B5012000F03FFA012001
:107A500000F034FA002000F039FABDE810400020B0
:107A600000F02CBA10B5002000F030FA012000F030
:107A700025FABDE81040012000F028BA10B5FFF744
:107A800095FFAE2000F02AFAD52000F027FA8020DA
:107A900000F024FAA82000F021FA3F2000F01EFA9E
:107AA000D32000F01BFA002000F018FA402000F06C
:107AB00015FAA12000F012FAC82000F00FFADA201F
:107AC00000F00CFA122000F009FA812000F006FA0A
:107AD000CF2000F003FAD92000F000FAF12000F0E6
:107AE000FDF9DB2000F0FAF9302000F0F7F9A420CE
:107AF00000F0F4F9A62000F0F1F98D2000F0EEF985
:107B0000142000F0EBF9AF2000F0E8F9FFF70CFFCC
:107B1000BDE8104000F0BEB90346012000E0584324
:107B2000491E4A1CFBD170470FB470B5C0B0054662
:107B30000E46144648AA6846479901F0D3F82346F2
:107B40006A463146284600F0E1F840B070BC5DF866
:107B500014FB00002DE9F041CF1823E004468618FD
:107B60001CE07F2C18D8002916DB3F2914DCCB172A
:107B700001EB5373DD104FEAC51C0C4D23F00703D6
:107B80006544A1EB030815F804C0012303FA08F3C8
:107B90008CEA030C05F804C0641C24B2A642E0DCA5
:107BA000491C09B28F42D9DCBDE8F08140000020B9
:107BB00010B50C4640F0B00000F090F9102040EAFB
:107BC000141000F08BF904F00F00BDE8104000F035
:107BD00085B9000008B5203A082B0CD0062B09D136
:107BE000094B02EB420203EB4202009208230622F9
:107BF00000F00EF808BD054B03EB021200921023B3
:107C0000082200F005F808BD489D000858970008B4
:107C10002DE9FF4F0F46DDF8349090461D460024B5
:107C20002B46424639460098FFF792FE6D1EE81734
:107C300005EB50700121DFF888C001EBE00A3BE062
:107C4000002035E000990D187F2D2FD8F91707EB8C
:107C50005171CA1016B221F007017B1A002F03DA06
:107C6000761E36B208331BB2311907290DD804FB32
:107C700008FB09EB000E0CEBC1121BF80EB0565DB1
:107C80000BFA03FB46EA0B065655491C07290DD88B
:107C900004FB08F609EB000B0CEBC11116F80B60A6
:107CA0004A5DC3F10803DE4032434A55401CC0B26E
:107CB0004045C7D3641CE4B2A245C1DCBDE8FF8FD8
:107CC000400000202DE9F04F8046DDF824A08B46CF
:107CD00091461F4600240A2514E0391B491E0A203C
:107CE000FFF71AFFB9FBF0F6B6FBF5F005FB1062E3
:107CF00004FB0A80303200B253465946FFF76AFF50
:107D0000641CE4B2BC42E8D3BDE8F08F2DE9FF4F1C
:107D100083B080461446994600250026AA46ADE069
:107D2000010609D4012029466D1C615CADB28DF8B5
:107D300004108DF805A055E00621B1EB501F10D1BD
:107D40000220691C625D89B28DF80420625C002A01
:107D500076D04A1C615C95B28DF805108DF806A0AE
:107D600040E00E21B1EB101F18D10320691C625DA9
:107D700089B28DF80420625C002A61D04A1C615CE3
:107D800092B28DF80510A15C00297BD0511C8DB2F8
:107D9000A15C8DF806108DF807A023E01E21B1EB41
:107DA000D00F23D10420691C625D89B28DF80420B4
:107DB000625C002A66D04A1C615C92B28DF80510A4
:107DC000A15C00295ED0511CA25C89B28DF806200E
:107DD000625C002A56D04A1C615C95B28DF807108F
:107DE0008DF808A0012804D0002716E06D1CADB264
:107DF00044E008EB06009DF8042000B24B460499CD
:107E0000FFF7E8FE06EB090086B237E0584601A905
:107E1000FDF79CF968B17F1CBFB207EB870000EB50
:107E200047111A480844834619A1FDF78FF9002825
:107E3000ECD1B9F1080F04D0B9F1060F1ED113E04F
:107E400020E007EB870000EB47111048102308449F
:107E5000401D009008EB060000B21A460499FFF797
:107E6000D7FE1036B6B209E008EB060000B20623D2
:107E70003F220499FFF7AEFEB61DB6B2605D002842
:107E80007FF44EAF07B0BDE8F08F0000829F00087E
:107E90000000000070B50024074D00212046FFF7C8
:107EA00087FE05EBC410802100F029F8641CE4B2C1
:107EB000082CF2D370BD00004000002002464FF4B1
:107EC00080710148FEF7A6B8000C014002464FF44D
:107ED00000710148FEF79EB8000C014010B5044641
:107EE000FFF7B1FD7820FFF791FD0020FFF78EFD31
:107EF0002046FFF78BFDBDE81040FFF7B3BD70B51E
:107F000005460E46FFF79FFD7820FFF77FFD4020D6
:107F1000FFF77CFD002404E0285DFFF777FD641C7B
:107F2000E4B2B442F8D3BDE87040FFF79BBD000057
:107F300030B589B00121084600F072F80121042013
:107F400000F08AF80024089418208DF823000C20F3
:107F5000ADF8200003208DF8220008A91C48FDF789
:107F6000FBFF4FF08045284600F0BEFB05940694C9
:107F70000794ADF81A40ADF816406320ADF818002C
:107F80004720ADF814008DF81C4005A9284600F0E4
:107F900079FC019402940394049401A800F064FC19
:107FA0006020ADF80400ADF80C400120ADF80600EB
:107FB000ADF80A4001A9284600F0E0FB01A92846D7
:107FC00000F01EFC0121284600F064FA09B030BD23
:107FD000000801400146014800F050BC0004004088
:107FE00010B5FDF72BFB064A064BFDF738FAFDF7F7
:107FF00046FB81B2BDE810404FF0804000F040BC2D
:108000009A9999999999D93F70470000034A516804
:1080100021F44041014351607047000000100240CC
:10802000054A002903D0D1690143D1617047D16964
:108030008143D1617047000000100240054A0029C9
:1080400003D01169014311617047116981431161C6
:108050007047000000100240054A002903D09169D2
:1080600001439161704791698143916170470000BC
:1080700000100240054A002903D0D1680143D160B5
:108080007047D1688143D160704700000010024002
:1080900010B5264A516801F00C01254B002927D064
:1080A000042927D0082927D00360516801F0F00186
:1080B0000909204B5C5C0168E1404160546804F4AC
:1080C000E064240A1C5D21FA04F48460546804F41A
:1080D0006054E40A1B5DD940C160526802F440421A
:1080E000920B144B1B1F9A5CB1FBF2F1016110BDA6
:1080F0000360DAE70360D8E7516801F47011536850
:1081000003F48033022404EB914133B153689B03A1
:1081100007D5094B59430160C7E7074B5943016035
:10812000C3E7034B59430160BFE700000010024062
:1081300000127A000400002000093D0070B50446DA
:10814000FDF7B4FD1C4D20212846FDF75FFF1420EC
:10815000FDF7FAFD20212846FDF75AFF0D20FDF717
:10816000FFFDFDF793FDFDF749FD08B1002070BD4F
:10817000FDF7DCFD2070FDF7D9FD6070FDF7D6FD41
:10818000A070FDF7D3FDE070FDF7D0FD2071FDF785
:108190008DFD20212846FDF73BFF20786178E278AD
:1081A0000844A178114408442179884201D1012072
:1081B00070BD002070BD0000000C01407047000041
:1081C00030B589B001210220FFF72AFF01210420E8
:1081D000FFF742FF0024089418208DF82300402068
:1081E000ADF8200003208DF8220008A91C48FDF7F7
:1081F000B3FE1C4D284600F077FA059406940794C8
:10820000ADF81A40ADF8164044F61F60ADF81800FE
:108210004720ADF814008DF81C4005A9284600F051
:1082200031FB019402940394049401A800F01CFB18
:108230006020ADF80400ADF80C400120ADF8060058
:10824000ADF80A4001A9284600F098FA01A928468D
:1082500000F050FA0121284600F01CF909B030BDA9
:10826000000801400004004010B50849FDF706F879
:108270000749FCF7D1FF0749FCF776FFFDF7EBF95B
:10828000BDE8104080B2FFF7A5BE000000003443F7
:108290000000FA440000FA4370B5FDF7F5FD04460E
:1082A0001548FDF7BDFE1548002215490378012544
:1082B00023B9057010480078442811D0641C12D0EE
:1082C000104C2068FDF7ACF9FFF7CEFFD4E90001B0
:1082D00008442060822809DB4FF0FF30606008E02E
:1082E0008A70002070BD8A70002070BD322800DCCA
:1082F0006560012070BD00003800002037000020BC
:10830000230000202C000020AFF300800CB50022D9
:10831000019200922748016841F4803101604FF4D6
:10832000A063016801F4003100910199491C019199
:10833000009911B901999942F3D10168890302D5D5
:108340000121009100E000920099012930D11A49E1
:108350000A6842F010020A600A6822F003020A600A
:108360000A6842F002020A60416841604168416067
:10837000416841F480614160416821F47C114160B1
:10838000416841F4E8114160016841F08071016089
:1083900001688901FCD5416821F003014160416811
:1083A00041F0020141604168C1F381010229FAD123
:1083B0000CBD000000100240002002407047000089
:1083C00010B50F48016841F00101016041680D4A94
:1083D0001140416001680C4A11400160016821F4BC
:1083E00080210160416821F4FE0141604FF41F01CA
:1083F0008160FFF789FF06490448086010BD00004E
:10840000001002400000FFF8FFFFF6FE00500008D9
:1084100008ED00E070B5174C0121204600F04EF940
:10842000012825D1144A117811B1491E117019E0A3
:10843000124B3B25197819B1491E1970157011E0BE
:108440000F48017821B1491E01701D70157009E0B7
:108450000C49012048700020C87008710021204696
:1084600000F018F82046BDE87040012100F00FB878
:1084700070BD0000002C01401600002015000020F7
:108480001400002023000020C94301827047C94323
:1084900001827047002904D0018841F00101018068
:1084A0007047018821F001010180704710B57349C0
:1084B00088420AD1C41401212046FFF7DBFD204683
:1084C000BDE810400021FFF7D5BDB0F1804F0CD0C2
:1084D0006B49884213D101210220FFF7AFFD002133
:1084E000BDE810400220FFF7A9BD01210846FFF7B3
:1084F000A5FD0021BDE810400120FFF79FBD6149A7
:10850000884209D101210420FFF798FD0021BDE830
:1085100010400420FFF792BD5B49884209D1012138
:108520000820FFF78BFD0021BDE810400820FFF771
:1085300085BD5649884209D101211020FFF77EFDF3
:108540000021BDE810401020FFF778BD5049884257
:1085500009D101212020FFF771FD0021BDE8104065
:108560002020FFF76BBD4B4988420AD144140121FA
:108570002046FFF77FFD2046BDE810400021FFF7B1
:1085800079BD454988420AD10121CC042046FFF734
:1085900071FD2046BDE810400021FFF76BBD3F494B
:1085A00088420AD101210C052046FFF763FD2046D1
:1085B000BDE810400021FFF75DBD394988420AD16E
:1085C00001214C052046FFF755FD2046BDE810402F
:1085D0000021FFF74FBD3349884209D101214020D6
:1085E000FFF72CFD0021BDE810404020FFF726BD1D
:1085F0002D49884209D101218020FFF71FFD00216C
:10860000BDE810408020FFF719BD284988420AD1F3
:10861000841501212046FFF711FD2046BDE81040DA
:108620000021FFF70BBD224988420AD101210C0429
:108630002046FFF71FFD2046BDE810400021FFF750
:1086400019BD1C4988420AD101214C042046FFF77C
:1086500011FD2046BDE810400021FFF70BBD164973
:1086600088420AD101218C042046FFF703FD2046F1
:10867000BDE810400021FFF7FDBC10BD002C0140FB
:108680000004004000080040000C004000100040C2
:108690000014004000340140004C014000500140F3
:1086A0000054014000180040001C00400020004021
:1086B00000400140004401400048014002460020C3
:1086C000138A0B4092890A40002B02D0002A00D066
:1086D00001207047002A03D082890A4382817047B3
:1086E00082898A4382817047018921F007010181D3
:1086F0007047000030B5028C22F001020284028C27
:108700008388048B24F0700424F003050C882C4328
:1087100022F002020D8915434A882A43124DA842CD
:108720000BD0124DA84208D0114DA84205D0114DD2
:10873000A84202D0104DA8420FD122F008054A8964
:108740002A4322F004058A882A4323F4807323F401
:1087500000738D891D43CB892B4383800483C98893
:108760008186028430BD0000002C014000340140AD
:1087700000400140004401400048014070B5028CB7
:1087800022F480720284028C8388848B24F070042B
:1087900024F003040D88254322F400720E894FF65D
:1087A000FF7404EA062616434A8804EA022232438A
:1087B000114EB04202D0114EB04217D122F40066E1
:1087C0004A8904EA0222324322F480668A8804EA53
:1087D0000222324323F4805323F400538E8904EAA7
:1087E00006161E43CB8904EA031333438380858333
:1087F000C9888187028470BD002C0140003401408B
:1088000070B5028C22F480520284058C8288838B9E
:1088100023F4E04323F440760C884FF6FF7303EA19
:108820000424344325F400550E8903EA06362E430A
:108830004D8803EA05353543094EB04202D0094E52
:10884000B04205D122F480468A8903EA821232437B
:1088500082808483C988A0F84010058470BD000020
:10886000002C0140003401400021018041808180C2
:10887000C180018141818181C181704781867047BA
:108880008187704730B502881B4C1C4DA0420DD02B
:10889000A8420BD0B0F1804F08D0194B984205D0B8
:1088A000184B984202D0184B984203D122F0700323
:1088B0004A881A43154B984206D0154B984203D06C
:1088C00022F44073CA881A4302808A8882850A8803
:1088D0000285A0420AD0A84208D00E4A904205D094
:1088E0000D4A904202D00D4A904201D1097A018688
:1088F0000121818230BD0000002C01400034014084
:108900000004004000080040000C0040001000403F
:108910000014004000400140004401400048014074
:108920000148007870470000160000207FB5234DF5
:1089300000212846FFF7AEFD01212846FFF7A4FDE0
:1089400001212846FFF7A3FD0121C802FFF784FBA0
:108950002846FFF7C9FE2846FFF7A8FD002401942A
:1089600002940394ADF80A40ADF8064042F20F714C
:10897000ADF8081041F61F41ADF804108DF80C4019
:1089800001A92846FFF77EFF01212846FFF77CFD5D
:10899000012211462846FFF79DFE009419208DF80C
:1089A000000001208DF8030002218DF801108DF8E0
:1089B00002006846FEF76EFF7FBD0000002C0140FC
:1089C00070B5174D40F225563146284600F04BF859
:1089D000002824D0284600F0DFF8C0B2114CAA28A5
:1089E0000CD000212170607000F052F90120A070BD
:1089F00031462846BDE8704000F01AB82078401C87
:108A0000C0B220700528F3D372B607490868074A38
:108A100000F4E06010430860BFF34F8FFEE770BDC5
:108A200000380140340000200CED00E00400FA059D
:108A300040F66A120A0A01219140C9430180704739
:108A4000002904D0818941F40051818170478189D6
:108A500021F40051818170470246002012880A42A9
:108A600000D00120704770B5002440F66A12C1F3AF
:108A7000421301F01F05012606FA05F2012B0CD066
:108A8000022B0DD0838A1340090A8E4000883040A3
:108A90000BB100B10124204670BD83891340F3E778
:108AA000038A1340F0E710B540F66A13C1F342138E
:108AB00001F01F040121A140012B07D0022B07D098
:108AC00014303AB102680A43026010BD0C30F8E776
:108AD0001030F6E702688A43026010BD30B585B0F9
:108AE00004460D46208A4CF6FF710840E988014390
:108AF0002182A0894EF6F3110840A9882A891143E2
:108B00006A8902431143A181A08A4FF6FF410840C0
:108B1000A9890143A1826846FFF7BAFA1D48844239
:108B200001D1039800E00298A189090408D500EB5F
:108B3000C00101EB001029684900B0FBF1F007E02B
:108B400000EBC00101EB001029688900B0FBF1F0D7
:108B50006422B0FBF2F109010B096FF018056B43B9
:108B600000EB8300A3891D044FF0320307D503EB0C
:108B7000C000B0FBF2F000F00700084306E003EB92
:108B80000010B0FBF2F000F00F000843208105B0A8
:108B900030BD0000003801408088C0F308007047F5
:108BA000C1F3080181807047FEE70000014840786A
:108BB000704700003400002004488178012901D06A
:108BC0000020704700218170012070473400002090
:108BD00070B586B001218803FFF73EFA0121042019
:108BE000FFF73AFA0024059418208DF817004FF487
:108BF0000070ADF8140003258DF81650224E05A91B
:108C00003046FDF7A9F948218DF817103115ADF858
:108C100014108DF8165005A93046FDF79DF9029401
:108C2000039404944FF4E1200190ADF810400C201F
:108C3000ADF80E00ADF80C40ADF80A40ADF80840B4
:108C4000124D01A92846FFF749FF012240F22551A4
:108C50002846FFF728FF4FF4A060FEF74DFE009472
:108C600025218DF8001001218DF803108DF80110D9
:108C70008DF802106846FEF70DFE01212846FFF729
:108C8000DFFE06B070BD0000000801400038014062
:108C900010B5064C01462046FFF782FF8021204692
:108CA000FFF7DAFE0028F9D010BD000000380140BF
:108CB0000FB47CB50C0009AD01D0611E00E00021AD
:108CC000CDE90001064B6A462946089800F0EEF807
:108CD000002C02D0009A002111707CBC5DF814FBBE
:108CE000B395000837B514460846064B6A46214638
:108CF00000F0DCF804466946002000F065FC2046E0
:108D00003EBD0000C995000802E008C8121F08C156
:108D1000002AFAD170477047002001E001C1121FFC
:108D2000002AFBD1704700002DE9FF5F82B00021CF
:108D3000DDE90430020DDDF840B0034318D044F6FD
:108D40001050A2F2FF3242431514119801281FD08F
:108D5000A5EB0B00401C5FEA000A4FF000064E4FE7
:108D6000DFF83891B046504615D5CAF1000413E03B
:108D7000119801244AA3012801D16FEA0B0102983E
:108D8000119AC0E90031C0E9024206B0BDE8F09F87
:108D9000CBF10000DFE704460021404A491842EBCE
:108DA0000450CDE9001012E0E00707D032463B4600
:108DB00040464946FCF753FB8046894632463B46CF
:108DC00010461946FCF74BFB06460F466410002C74
:108DD000EAD1DDE90401DDE90023BAF1000F06DA8A
:108DE000FCF73DFB42464B46FCF739FB05E0FCF740
:108DF000A8FB42464B46FCF7A4FB04460E46002265
:108E0000284BFCF769FC03D84FF0FF30014607E020
:108E10000022254B20463146FCF77AFAFCF78AFD02
:108E2000102409E0002C0ADB0A220023FCF78CFC4A
:108E3000039B30321A55641E50EA0102F2D1641CC1
:108E4000039AC4F111031444119A012A03D0012298
:108E500008430DD10AE0084304D000204FF0110B65
:108E6000119072E7A3EB0B056D1E0DE05B4504DD71
:108E70004FF0000205F1010504E003DA4FF00002B3
:108E8000A5F10105002AECD002981199C0E9023140
:108E9000C0E9004579E70000000014400000F03F01
:108EA000300000000000F0430000E03F2DE9FF4FDC
:108EB00095B09A46884606460025EEE1252877D1EA
:108EC00000242746F94A0121039400E0044316F8E0
:108ED000013F203B01FA03F01042F7D130782A28F5
:108EE00011D06FF02F033078A0F13002092A16D884
:108EF000039A44F0020402EB820203EB42021044A4
:108F0000761C0390EFE758F8042B0392002A03DA4B
:108F1000504244F40054039044F00204761C30782C
:108F20002E2816D116F8010F44F004042A280DD07B
:108F30006FF02F023078A0F13003092B09D807EB2E
:108F4000870302EB4303C718761CF3E758F8047B4A
:108F5000761C30786C280FD006DC4C2817D0682897
:108F60000DD06A2814D104E0742810D07A280FD1CB
:108F70000DE044F400140AE044F4801401E044F4E9
:108F800040147278824202D104F58014761C761C5B
:108F9000307866280BD013DC582877D009DC0028FD
:108FA00075D04528F6D04628F4D047281AD193E149
:108FB00018E0632835D0642879D0652812D18BE178
:108FC000702873D008DC6728F1D069286FD06E282C
:108FD0000DD06F2806D1ACE073282CD0752874D042
:108FE000782853D05246179990476D1C54E1C4F32A
:108FF0000250022809D003280DD0D8F80010042808
:109000000DD00D6008F1040846E1D8F80010EA1709
:10901000C1E90052F6E7D8F800100D80F2E70D70B4
:10902000F0E718F8041B8DF8001000208DF80100FF
:10903000EB46012003E058F804BB4FF0FF30610716
:109040004FF0000102D40DE009F101018946B94257
:109050000FDA8145F8DB1BF809100029F4D108E08C
:1090600009F1010189468142FADB1BF80910002948
:10907000F6D103985346A0EB090721463846179AC4
:1090800000F080FA284400EB090507E044E008E11D
:109090000DE01BF8010B524617999047B9F10109F1
:1090A000F7D2534621463846179AF2E039E00A21B2
:1090B000C4F302524FF0000B0091022A06D058F878
:1090C000040BC117032A09D00AE023E008F10700C6
:1090D00020F00702F2E80201904605E000B2C11755
:1090E000042A01D140B2C117002906DA0A4600213C
:1090F000404261EB02012D2202E0220504D52B2221
:109100008DF80420012203E0E20701D02022F7E7D6
:10911000914657E00A2100E010214FF0000B00912A
:109120000BE010214FF0000B44F0040408270091DD
:1091300003E008204FF0000B0090C4F30252022A13
:1091400005D058F8040B0021032A08D008E008F1E4
:10915000070020F00702F2E80201904603E080B227
:10916000042A00D1C0B24FF0000922072AD5327874
:10917000702A07D0DDF800C08CF0100C5CEA0B0CF4
:1091800005D00EE040228DF80420012208E050EACC
:10919000010306D030238DF804308DF8052002221B
:1091A0009146009B83F0080353EA0B030AD150EA6F
:1091B000010201D1620705D530228DF804204FF05D
:1091C00001097F1E3278582A04D039A20C920CAAC9
:1091D00002920BE03BA2F9E75B46009AFCF7B4FA77
:1091E0000C9B9B5C029A521E0292137050EA010281
:1091F000F2D1029804A9081A00F1200B600702D5E9
:1092000024F4803400E001275F4502DDA7EB0B006A
:1092100000E0002000EB0B01009003984944401A45
:109220000390E00306D453462146179A039800F0B2
:10923000A9F90544002706E001A85246C05D179928
:1092400090476D1C7F1C4F45F6DBE0030CD5534661
:109250002146179A039800F095F9054404E0302060
:109260005246179990476D1C0099481E009000299E
:10927000F5DC08E00298029952460078491C0291F8
:10928000179990476D1CBBF10001ABF1010BF1DCAC
:109290005BE100F065F90544761C307800287FF426
:1092A0000DAE19B02846BDE8F08F00000928010076
:1092B000303132333435363738396162636465664C
:1092C000000000003031323334353637383941420E
:1092D0004344454600000000600700D4062708F11B
:1092E000070020F00700F0E80223804603F0004C5E
:1092F0005FEA0C0001D097A009E0200501D596A0F7
:1093000005E0E00701D095A001E0AFF24C0013901A
:10931000307823F0004365280CD006DC452809D0BE
:1093200046281DD047287FD13BE0662818D0672803
:109330007AD136E00021112F01DB112000E0781CEA
:10934000CDE9000104A90CA8FFF7EEFCDDE90D0151
:109350000C9A4FF0000B07F10109109200914EE0BA
:109360004FF000400097CDE9011004A90CA8FFF7C9
:10937000DBFCDDE90D020C9B0F994FF0000B9146D1
:109380001093009211B9791C00EB0109B7EB0900A9
:1093900003D4C0F1FF3B07F10109A9EB07000190DD
:1093A00042E0012F00DA01270021112F01DD1120F9
:1093B00000E03846CDE9000104A90CA8FFF7B4FC91
:1093C000DDE90D010C9A00914FF0000BB9461092A7
:1093D00021070FD4009A4A4503DA914601E0A9F12A
:1093E0000109B9F1010F05DD109AA9F10101515CE4
:1093F0003029F4D0B84202DA10F1040F03DA012167
:10940000CDE9011010E0002803DC8344A9EB000142
:1094100002E0411C494500DD8946A0EB0B00401CE1
:1094200001904FF000400290200705D40198484574
:1094300002DB4FF0FF30019000208DF84B000298C6
:109440000DF14B07B0F1004F25D002200C902B20DE
:109450000D90029800280CDA404202902D200D90C9
:1094600007E00A210298FCF759F93031029007F819
:10947000011D0C99481E0C900029F2DC029800286E
:10948000EFD1791E0D980870307800F0200040F080
:10949000450007F8020D11A8C01BC01D02901398CB
:1094A000007800B1012000EB0901019801EBE071A7
:1094B000029801440398401A401E0390E00306D42A
:1094C00053462146179A039800F05CF80544139818
:1094D000007818B15246179990476D1CE00323D5C8
:1094E00053462146179A039800F04CF805441BE0B8
:1094F000BBF1000F07DB0098584504DD1098179961
:1095000010F80B0001E0179930205246904701985F
:109510000BF1010B401E05F10105019004D12E2035
:109520005246179990476D1CB9F10001A9F1010944
:10953000DEDC05E017F8010B5246179990476D1CC9
:109540000299481E02900029F4DC53462146179ADE
:1095500003989EE62D0000002B0000002000000074
:109560002DE9F041044600251E461746880404D420
:1095700005E039462020B0476D1C641EF9D5284609
:10958000BDE8F0812DE9F041044600251E469046D5
:10959000C80301D5302700E02027880404D505E062
:1095A00041463846B0476D1C641EF9D52846BDE8D3
:1095B000F0814A68002A06D00A68531C0B601070BC
:1095C0004868401E486070470A68531C0B60107062
:1095D0007047000010B50549FBF71EFE0449FBF774
:1095E000C3FDBDE81040FCF736B800003BAA384B7D
:1095F00050E27D4E10B504490844FCF71AF8BDE866
:1096000010400249FBF708BE0B6C87C01872B133DB
:1096100010B50C46B0F5000F01DA002010BDFFF7C1
:10962000E9FF2146FBF7F8FDBDE81040FFF7D2BF88
:10963000002080F31088FEF721FAFCF783FDFCF789
:1096400059FDFCF707FBFCF727FCFCF7ADFAFCF72C
:1096500005FDFEF7E1F8FFF7BBFAFEF7B1FDFFF7F6
:1096600065F9FCF743FA1348FEF7FEFDFCF7B4FA80
:10967000FCF760FDFA20FCF767FBFCF7B5FAFCF796
:1096800051FDFDF71FFB012808D0022809D003284F
:109690000AD004280BD0FDF715FBF4E7FDF770FBAB
:1096A000F1E7FCF7AFFDEEE7FDF7AEFDEBE7FDF709
:1096B00041FAE8E70000B442E8A7000810A8000853
:1096C00038A80008C0A7000878A80008B0A80008BB
:1096D00090A80008A0A8000878A80008B0A8000872
:1096E00090A80008A0A8000878A80008B0A8000862
:1096F00090A80008A0A8000878A8000810A90008F1
:10970000D0A80008F0A8000878A8000810A9000850
:10971000D0A80008F0A8000878A8000810A9000840
:10972000D0A80008F0A80008C0A80008E0A8000819
:1097300000A9000860A80008C0A80008E0A8000868
:1097400000A9000860A80008C0A80008E0A8000858
:1097500000A9000860A80008000000000000000048
:109760000000000000000000000000F80000000001
:10977000000000333000000000160E00160E00003E
:10978000000000000000000040C07840C0784000A9
:10979000043F04043F040400007088FC083000000B
:1097A000001820FF211E0000F008F000E018000063
:1097B00000211C031E211E0000F00888700000001C
:1097C0001E21232419272110000000160E0000007E
:1097D0000000000000000000000000E0180402008B
:1097E000000000071820400000020418E0000000FC
:1097F0000040201807000000404080F080404000FA
:109800000202010F01020200000000F0000000004F
:109810000101011F01010100000000000000000023
:1098200000B0700000000000000000000000000018
:109830000001010101010101000000000000000021
:1098400000303000000000000000000080601804BC
:10985000006018060100000000E010080810E00099
:10986000000F102020100F00001010F80000000062
:109870000020203F202000000070080808887000A9
:109880000030282422213000003008888848300029
:109890000018202020110E000000C02010F8000049
:1098A00000070424243F240000F8088888080800E2
:1098B0000019212020110E0000E0108888180000F7
:1098C000000F112020110E0000380808C8380800C9
:1098D0000000003F00000000007088080888700049
:1098E000001C222121221C0000E010080810E000CA
:1098F0000000312222110F00000000C0C000000053
:109900000000003030000000000000C0C000000077
:10991000000080B0700000000000804020100800AF
:109920000001020408102000404040404040400038
:109930000404040404040400000810204080000013
:109940000020100804020100007048080808F00018
:109950000000003036010000C030C828E810E000E8
:109960000718272423140B000000C038E000000073
:10997000203C23020227382008F8888888700000DD
:10998000203F202020110E00C030080808083800B1
:10999000071820202010080008F808080810E00028
:1099A000203F202020100F0008F88888E8081000C9
:1099B000203F20202320180008F88888E80810009D
:1099C000203F200003000000C030080808380000D5
:1099D00007182020221E020008F808000008F808D6
:1099E000203F210101213F20000808F8080800005D
:1099F0000020203F2020000000000808F808080090
:109A0000C08080807F00000008F888C02818080007
:109A1000203F20012638200008F808000000000040
:109A2000203F20202020300008F8F800F8F8080037
:109A3000203F003F003F200008F830C00008F80831
:109A4000203F200007183F00E01008080810E00041
:109A50000F10202020100F0008F808080808F00058
:109A6000203F210101010000E01008080810E0007B
:109A70000F18242438504F0008F888888888700010
:109A8000203F2000030C30200070880808083800B0
:109A90000038202121221C00180808F808081800A6
:109AA0000000203F2000000008F808000008F80827
:109AB000001F202020201F000878880000C83808D8
:109AC000000007380E010000F80800F80008F80050
:109AD000033C0700073C03000818688080681808EA
:109AE00020302C03032C30200838C800C838080068
:109AF0000000203F2000000010080808C8380800B7
:109B00002038262120201800000000FE020202005A
:109B10000000007F40404000000C30C0000000000A
:109B2000000000010638C00000020202FE00000032
:109B3000004040407F000000002010080408102072
:109B40000000000000000000000000000000000015
:109B500080808080808080800002040800000000F7
:109B600000000000000000000000808080800000F5
:109B70000019242222223F2008F8008080000000E3
:109B8000003F112020110E000000008080800000A6
:109B9000000E112020201100000000808088F800B5
:109BA000000E112020103F200000808080800000E7
:109BB000001F222222221300008080F0888888184B
:109BC0000020203F20200000000080808080800056
:109BD000006B94949493600008F8008080800000EB
:109BE000203F210000203F200080989800000000C6
:109BF0000020203F202000000000008098980000F6
:109C000000C08080807F000008F800008080800015
:109C1000203F24022D302000000808F8000000003A
:109C20000020203F202000008080808080808000F5
:109C3000203F20003F20003F008080008080000007
:109C400000203F2100203F20000080808080000015
:109C5000001F202020201F00808000808000000046
:109C600080FFA12020110E00000000808080800075
:109C7000000E112020A0FF80808080008080800066
:109C800020203F2120000100000080808080800093
:109C90000033242424241900008080E08080000008
:109CA0000000001F20200000808000000080800055
:109CB000001F202020103F208080800000808080B6
:109CC00000010E3008060100808000800080808046
:109CD0000F300C030C300F0000808000808080006B
:109CE0000020312E0E312000808080000080808096
:109CF00080818E7018060100008080808080800046
:109D00000021302C2221300000000000807C020263
:109D100000000000003F404000000000FF00000085
:109D200000000000FF0000000002027C8000000034
:109D30000040403F00000000008040408000008064
:109D40000000000000010100000000000000000011
:109D5000002F000000000700070000147F147F148C
:109D600000242A7F2A120023130864620036495512
:109D7000225000000007000000001C2241000000EB
:109D800041221C000014083E08140008083E080880
:109D9000000000A0600000080808080800006060DB
:109DA0000000002010080402003E5149453E00001A
:109DB000427F4000004261514946002141454B31FC
:109DC000001814127F10002745454539003C4A49C8
:109DD000493000017109050300364949493600063A
:109DE0004949291E000036360000000056360000A2
:109DF000000814224100001414141414000041221D
:109E00001408000201510906003E4955592E007CF4
:109E10001211127C007F49494936003E41414122DE
:109E2000007F4141221C007F49494941007F0909C7
:109E30000901003E4149497A007F0808087F000077
:109E4000417F4100002040413F01007F0814224132
:109E5000007F40404040007F020C027F007F0408EA
:109E6000107F003E4141413E007F09090906003E46
:109E70004151215E007F091929460046494949316F
:109E80000001017F0101003F4040403F001F204092
:109E9000201F003F4038403F006314081463000750
:109EA0000870080700615149454300007F414100A7
:109EB000000204081020000041417F00000402015C
:109EC0000204004040404040000001020400002025
:109ED00054545478007F4844443800384444442063
:109EE00000384444487F00385454541800087E0910
:109EF00001020018A4A4A47C007F080404780000D8
:109F0000447D4000004080847D00007F1028440094
:109F10000000417F4000007C04180478007C0804A5
:109F2000047800384444443800FC242424180018E1
:109F3000242418FC007C08040408004854545420CD
:109F400000043F444020003C4040207C001C204056
:109F5000201C003C4030403C004428102844001C99
:109F6000A0A0A07C004464544C440000087F410041
:109F70000000007F00000000417F08000008040886
:109F80001008EFBC8C000000000000000000000082
:109F90000000000000000000005838000000000031
:109FA00000000000000000E38082000000000000CC
:109FB0000000000000000000000000000000182465
:109FC000241800000000000000000000E4BDA00014
:109FD00000008060F8074020180F08C808082818FB
:109FE00000010000FF00100C0340807F00010618F4
:109FF00000E5A5BD00001010F01F10F00080828267
:10A00000E2928A8680004022150816610000408096
:10A010007F0000000000E4B8960000202020FE2011
:10A0200020FF202020FF20202020000000007F4073
:10A030004047444444474040400000E7958C0000BE
:10A04000000000FE929292FE929292FE00000000AA
:10A0500008080484621E010001FE020404080800CE
:10A06000E887AA0000000000F8888C8A8988888820
:10A07000F800000000000000FF444444444444440D
:10A08000FF00000000E58AA800004044C4444444A6
:10A09000401010FF101010F00000103C131014B806
:10A0A00040300E014080403F0000E6A8A1000010B3
:10A0B00010D0FF9014E4AFA4A4A4AFE40400000403
:10A0C0000300FF00894B2A1A0E1A2A4B888000E5EC
:10A0D000BC8F0000101090909090901010FF101006
:10A0E00011161000002060203F10101000030C100B
:10A0F0002040F800E6898B0000000024242424245A
:10A10000FC222222232200000002020202024282DA
:10A110007F0202020202020200E5AE9A0000100C69
:10A120004444444445C64444444444140C008040E0
:10A13000201E2040407F4444444444404000E69771
:10A14000B6000000FC848484FC001010101010FF86
:10A15000101000003F1010103F0000010640807FEB
:10A16000000000E8BF940000404042CC0000FC2406
:10A17000A4242222A36200000040201F2058475040
:10A180004845424548504000E59B9E00000000FEC7
:10A190000202F2121212F20202FE00000000007F20
:10A1A0002020272424242720207F000000E8939DDE
:10A1B00000000404E4040FF40404F444CF444444D1
:10A1C000040040407D44447D4445447C44457C40FB
:10A1D0004000E7899900000000C2B2828282828238
:10A1E000FE828282828000002020100804024180CA
:10A1F0007F000000000000E9809F0000404042CC4A
:10A200000004F49494FF9494F40400000040201F90
:10A2100020484442415F414244484000E5BAA6001C
:10A22000000000FC242424FC252624FC24242404EF
:10A230000040308F80844C55252525554C808080EA
:10A2400000E8B08300004042CC0000FE829292FE03
:10A25000929282FE000000003F10887F001E1212C2
:10A26000125E807F0000E88A820000044444445F5C
:10A2700044C44444445F44C404040000000000009B
:10A2800000FF000008100807000000E6978B0000A0
:10A290001010F196909010282724E42424E4040060
:10A2A00080601F40807F80601F207F4444444000C6
:10A2B000E8BDAC0000C8B88FE88888404848E85F2F
:10A2C0004848484000081808FF040400020B122206
:10A2D000D20A060000E696B900000808080808F847
:10A2E000898E888888880808080000804020180720
:10A2F00000004080403F00000000E5909100000019
:10A30000F808080CCA494848C8080808F8000000BE
:10A31000FF0000001F0808081F0040807F0000E9C0
:10A3200092AE000020102CE72424008282FE82825C
:10A33000FE0000000101017F211140407F404040AC
:10A340007F404000E99481000020102CE724240085
:10A35000E22C20BF2028E600000101017F211180AE
:10A360004F20100F10204F8000E5AE9A0000100C17
:10A370004444444445C64444444444140C0080408E
:10A38000201E2040407F4444444444404000E69125
:10A39000870000101010FF900094644454E2426360
:10A3A0005A00000242817F0000027A42427F42420C
:10A3B000FA0200E5A4B400000000106004180000D8
:10A3C000FF000000000000008181414121110907C8
:10A3D0000105091121C10100E7A1AE00000484E4D8
:10A3E0005C44C42010E82724E4342CE00002017F00
:10A3F00010103F80601F09093F49897F00E5AE9A30
:10A400000000100C4444444445C6444444444414AD
:10A410000C008040201E2040407F4444444444407F
:10A420004000E8AEBE0000404042CC0040A09E820A
:10A4300082829EA02020000000003F908840432C94
:10A4400010284641808000E7BDAE0000001715D5FA
:10A450005557557D555755D5151700004040407F3D
:10A46000555555555555557F40404000E5B08F0036
:10A4700000000000E0000000FF000000204080001D
:10A4800000080403000040807F0000000000010E6F
:10A4900000E5888600008040209088868080808348
:10A4A0008C10204080000080402018070040804031
:10A4B0003F0000000000E9929F000020102CE724DC
:10A4C0002400F01010FF1010F000000101017F21A6
:10A4D0001100070202FF0202070000E7A792000036
:10A4E0002424A4FE232200C03800FF0008106000CE
:10A4F000080601FF01068180404027100C03000080
:10A50000E695B0000090523410FF10345280708FE6
:10A510000808F80800829A566322528E0080403361
:10A520000C33408000E6B8A900001060028C0000E7
:10A53000FE9292929292FE00000004047E01407E00
:10A5400042427E427E42427E4000E6B9BF00001099
:10A5500060028C00FE929292929292FE00000004A1
:10A56000047E014448507F40407F5048444000E50D
:10A57000BAA600000000FC242424FC252624FC2488
:10A580002424040040308F80844C55252525554CCB
:10A5900080808000E5809200008060F80704645CA1
:10A5A000C4644400F800FF00000000FF00206222A5
:10A5B0001F1212004F807F0000E8AEA10000404053
:10A5C00042CC0040404040FF40404040400000003E
:10A5D000007F2010000000FF000000000000E69750
:10A5E000B6000000FC848484FC001010101010FFE2
:10A5F000101000003F1010103F0000010640807F47
:10A60000000000E99888000000F80122A0A2A22220
:10A61000FE22AA3202FE000000FF0010130A4B20A7
:10A62000170C133880FF0000E580BC00000080603C
:10A63000F80704E4A4A4BFA4A4E4040000010000FB
:10A64000FF40407F4A4A4A4A4A7F404000C2B00029
:10A65000000000000C12120C0000000000000000BE
:10A6600000000000000000000000000000000000EA
:10A670000000250000000000000000230013000877
:10A6800080044002200110008800440022001100D4
:10A6900000000000000000E6A38000001010D0FFC2
:10A6A000905020504C434C5020404000040300FF89
:10A6B00000414458414E605847404000E6B58B0089
:10A6C000001060028C00FE02F202FE00F800FF00A3
:10A6D0000004047E018047300F10270047807F0070
:10A6E00000E6B59300001060028C201808C838CF2F
:10A6F00008082898000004047E01040201FF40219C
:10A70000060A11204000E782B900000000C0404066
:10A71000407F48484848C808080000804037040483
:10A720001464041464040710E00000E587BB000013
:10A7300080808888888888FF8888888888808000CA
:10A7400000007C404040407F40404040FC00000012
:10A75000E588870000404040FF2020200404FC04DE
:10A760000404FC00000000001F0884422018074079
:10A7700080403F0000E68DA20000101010FF9020E6
:10A7800010E82724E4342CE000000242817F00849A
:10A790008447241C071C244784000000000000FF9D
:10A7A0000101013109090909897101010101FFFF55
:10A7B0008080808080809681808080808080FF0083
:10A7C000E8939DE78999E6A8A1E5BC8F2020202089
:10A7D0002020202020202020202020202020202079
:10A7E0002020202000000000E6898BE58AA8E6A84A
:10A7F000A1E5BC8F20202020202020202020202008
:10A8000020202020202020202020202000000000C8
:10A81000E887AAE58AA8E6A8A1E5BC8F2020202029
:10A820002020202020202020202020202020202028
:10A830002020202000000000E5AE9AE697B6E6A8AA
:10A84000A1E5BC8F202020202020202020202020B7
:10A850002020202020202020202020200000000078
:10A86000E7A1AEE5AE9A2020202020202020202045
:10A870002020202000000000E8BF94E59B9E2020BF
:10A880002020202020202020202020200000000048
:10A89000E9809FE5BAA6E8B083E88A823A00000022
:10A8A000E69187E5A4B4E6A8A1E5BC8F3A000000D4
:10A8B000E6978BE8BDACE696B9E590913A000000CA
:10A8C000E8AEBEE7BDAEE696B9E590913A0000006D
:10A8D000E8AEBEE7BDAEE58886E9929F3A0000008B
:10A8E000E8AEBEE7BDAEE9809FE5BAA63A0000003B
:10A8F000E8AEBEE7BDAEE7A792E695B03A0000002D
:10A90000E8AEBEE7BDAEE69187E5A4B43A0000002C
:10A91000E8AEBEE7BDAEE5B08FE697B63A00000000
:10A9200040A900080000002040000000088D000839
:10A9300080A900084000002000080000188D0008D1
:10A9400002040608000000000102030401020304DF
:10A95000060708090000000001FF000000000000D9
:10A9600000000000010000001E320F003200000055
:10A9700001000000000000010000000000000000D5
:04000005080050EDB2
:00000001FF
